:020000040000FA
:10000000980B0020D9000000F3000000F50000006C
:1000100000000000000000000000000000000000E0
:10002000000000000000000000000000F7000000D9
:100030000000000000000000F9000000FB000000CC
:10004000C1010000FD000000DD020000FD00000015
:10005000FD00000000000000FD000000FD000000A9
:10006000FD000000FD000000FD000000FD0000009C
:10007000FD000000FD000000FD000000FD0000008C
:10008000FD00000015020000FD000000FD00000062
:1000900035020000FD000000FD000000FD00000032
:1000A000FD000000FD000000000000000000000056
:1000B0000000000000000000000000000000000040
:1000C0000448854600F048F80048004791090000C0
:1000D000C046C046980B00200321094802680A4325
:1000E0000260084802680A430260074880470748E0
:1000F0000047FEE7FEE7FEE7FEE7FEE7FEE700005B
:1001000024050040540500403D020000C1000000ED
:1001100003460B439B0703D009E008C9121F08C020
:10012000042AFAD203E00B780370401C491C521ECB
:10013000F9D27047D2B201E00270401C491EFBD2D6
:1001400070470022F6E710B513460A4604461946E2
:10015000FFF7F0FF204610BD064C0125064E05E0D6
:10016000E36807CC2B430C3C98471034B442F7D3D8
:10017000FFF7AAFFA8130000C81300008307FF229F
:10018000DB0E9A408907090E994000280BDA000718
:10019000000F0838830808489B001818C369934368
:1001A0000B43C3617047830804489B001B18186801
:1001B000904308431860704700ED00E000E400E061
:1001C000F8B5FF20013000F061FC002401250E4E3F
:1001D0000E4F002807D00E4804600120B0607D70EB
:1001E000002000F055FAFF20053000F04FFC0028F9
:1001F00008D00748001D04600220B060BD700120D7
:1002000000F046FAF8BD0000000300406003002043
:100210000001004010B50649002008604860886071
:10022000C860034940390860486000F015FF10BD00
:100230004011014010B500F0A5FE10BD10B500F052
:10024000C3FA002805D01F491D484860C8131E493D
:1002500088611E48018CC9B201290BD1828C12071A
:1002600008D1028D1206120F042A03D1828D1206C4
:10027000120F0AD0012921D1818C09071ED1018DCD
:100280000906090F0A2904D007E0114A01219160EB
:10029000F5E7828D1206120F05D00D290ED1808D43
:1002A0000006000F0AD10B480168012904D00A4951
:1002B000016001680129FCD1C021416110BD00002D
:1002C000DFFF07C000050040006C0040C00F00F0D9
:1002D0000006004000EC06407593000010B502498E
:1002E000024800F093FF10BD4403002000200040AE
:1002F00002E008C8121F08C1002AFAD170477047EF
:10030000002001E001C1121F002AFBD1704700004C
:10031000BFF34F8F04490348C860BFF34F8F00BF3E
:10032000FDE700000400FA0500ED00E00EB5002135
:10033000029000916A4601910148FFF7E9FF0EBD66
:100340000140000010B58268C368934203D000F0FA
:1003500027FA002010BD052010BD002906D0002A74
:1003600002D0531E134203D0092070470E2070475D
:100370000160838000218160C1600846704710B52C
:100380008268C3689A1A83889A4203D800F012FAE6
:10039000002010BD042010BD0A4B5B68002B07D065
:1003A000002A07D0002805D00068037C002B03D06A
:1003B000082070470720704700230374417442618E
:1003C000184670472C000020F8B506469007002517
:1003D00014460F46002821D1002C1FD000F086FDC6
:1003E0000F4805704570877044600446103C656096
:1003F0002570657001250B482D050560032114202B
:10040000FFF7BCFE08480560084DAE6003211120CF
:10041000FFF7B4FE6868A0600020F8BD0720F8BDB3
:100420002C00002080E200E000E100E00015014027
:10043000FEB51D4B5B68002B2DD000282BD0052965
:1004400001D20720FEBD4369002B24D0437C012B41
:1004500023D000270446002516462846019100F0C7
:10046000BBF8684600F06AFF002818D0012101702F
:100470000E49446049688160019907614661C16025
:100480006846094900784870002000F0A9F800F09B
:10049000BBFD2846FEBD0820FEBD0F46DAE7042559
:1004A000002000F09DF8F4E72C000020001501402A
:1004B00070B50B4D0146AE780A48FFF743FF04467E
:1004C000002E0AD00020A870691C0122C81D00F06F
:1004D000BFFB002801D0FFF729FF204670BD0000B8
:1004E0000800002074030020F0B5274E89B01F4695
:1004F0000D00044672601CD0A888296882B2234887
:10050000FFF72BFF002815D1A889A96882B21F48E0
:100510001030FFF722FF00280CD120221C4968462A
:10052000FFF7F6FD60690690207C002804D00121C9
:1005300003E0072009B0F0BD002168460175077788
:10054000607C002800D00E2069464875E068029063
:10055000A068039020680190606800900A480D4AE6
:10056000083000F035FB0028E4D1B0702068401C52
:10057000E0D00548083000F099FB03490122491CEE
:10058000C81D00F065FBD5E70800002074030020BB
:10059000881300001111000010B501460C48FFF748
:1005A000EEFE040012D10B4800F04AFC00280DD1E9
:1005B000084907480839FFF7C5FE002806D1054954
:1005C00001220839034800F0DBFB0446204610BD39
:1005D000840300201000002000B500F005F800BDE5
:1005E00000B500F009F800BD72B602480168491C68
:1005F000016070471800002003490868401E086029
:1006000000D162B67047000018000020F8B5074618
:1006100008680C460526411C01253602002906D033
:100620002946814019488160206800F032FC6068EA
:10063000411C02D0002100F023FC3968A06989190F
:100640004862607D217D3A6808439119C866386820
:1006500006CC80194261C160207B083C012814D17E
:10066000A068411C02D0002100F00AFCE068411C97
:1006700005D0854005488560E06800F00AFC3A68CE
:10068000E1689219A06891601061F8BD0005005002
:1006900070B5084C050009D010342168002907D036
:1006A00008682060496828468847F6E70834F4E778
:1006B00070BD000060030020F8B5234841680029A0
:1006C0003ED00E6821494C6887688078E11B0D0296
:1006D0002D0AED1C002814D101201D4A0004506091
:1006E0001B4A403A50601B49400008601A490860A4
:1006F0001A49012008602F2000F0D0F9124901208A
:100700008870B54200D23546E81900020F4B000A46
:10071000403318600D4A5168001B091B0902090A81
:100720000002000AC91C814209D9506818602F20B4
:1007300000F0B4F901200749400480390860F8BD91
:1007400000F0D4FBF8BD00001C00002000150140A3
:100750004013014080E200E000E100E000100140B1
:1007600010B50E4900230A784C78A24212D0521CD0
:10077000D2B20A70022A00D10B700A78074B92009D
:1007800018339A580260886810180002000A8860BE
:10079000012010BD0360002010BD00001C000020DF
:1007A000826883881A4003689A5C0A708168491CD1
:1007B00081607047C26883881A4003689954C16891
:1007C000491CC160704700001048018CC9B2012962
:1007D00017D1818C090714D1018D09060A0F03D1A5
:1007E000828D1206120F0ED0090F012903D1828DBE
:1007F0001206120F07D0032903D1808D0006000FC7
:1008000001D000207047012070470000C00F00F0A9
:100810000268134602E08A4204D01268002AFAD124
:100820000B60016070470000F0B5284C214610397C
:1008300048688B68227886469C46CF78667836E092
:10084000182353436168521CC918A378D2B293424B
:1008500000D100220B78022B02D0032B27D123E0FA
:1008600003464D68194603E0A94204D00B46C96906
:1008700000291CD0F8E7002919D08B4208D1C069A3
:10088000002805D1124F0125BD600025AC46012787
:100890000D68C969D961002909D00B685B190B6023
:1008A00005E00174C06900E000210028F9D19642FA
:1008B000C6D10649624610398A604860CF707045DB
:1008C00001D00120F0BD0020F0BD00002C00002070
:1008D00000100140F8B52C4E0446706800250090C9
:1008E00041E0002C02D02046E46920E0264818238D
:1008F0001030017842684B43491CC9B2D2180170CC
:100900008378994200D105701178506801292CD163
:10091000017C002929D191684160D1688160116909
:10092000C16051698161F178002900D04560436858
:10093000B268164F991A0902090AB94202D28268AE
:10094000891806E0D11A09028268090A8A4202D986
:10095000511A016000E00560456001218560017465
:10096000C56100F059FB002CBBD10748103001785D
:1009700040788142BAD171680098814201D001204B
:10098000F8BD0020F8BD00001C000020FFFF7F0024
:100990001B4800F065F800F041F81A490320086090
:1009A00000F094F8002801D0FFF7C0FC002000F010
:1009B000ADF80023144A04211846FFF705FD134A39
:1009C00001211348FFF7E8FC002801D0FFF7AEFC37
:1009D0000F48104A0121001DFFF7DEFC002801D05E
:1009E000FFF7A4FC0A4C00220B492068FFF720FD0A
:1009F00001210022C9036068FFF71AFDFEE700002D
:100A0000351300005407005080000020C10E000084
:100A100068130000D90E00009A19000000B58BB0D1
:100A200018220C496846FFF773FBFF2101310A4881
:100A3000069040180791099108900323074A06A9D8
:100A40006846FFF751FD002801D0FFF76FFC0BB09F
:100A500000BD000070130000E0000020B91100008C
:100A6000002801D0014948607047000000000020C4
:100A700070B50D46044603E02078FFF78DFD641C39
:100A800028466D1EADB20028F6D170BD0121890740
:100A900040180068002800D00120704700280FD0BF
:100AA0000849094A096800BF00BF00BF00BF00BF76
:100AB00000BF00BF00BF914200D000BF0138F2D19B
:100AC000704700003C0000200024F40070B50C4C7E
:100AD00000252078002801D085250FE00021A160A5
:100AE00061602161E160074800680126304002D161
:100AF000032100F03DF8044886612670284670BD49
:100B00006003002000E100E00005004070B5154CD6
:100B10000546A078002808D0002D02D06968012081
:100B200088470020FFF758FD15E00020FFF754FD2F
:100B3000002D04D00B4829461030FFF769FEE0680D
:100B4000002808D108490860084902204860064981
:100B50000120FC390860E068401CE0600020FFF7DD
:100B60003FFD70BD60030020040100400003004011
:100B70008207D30EFF229A408907090E10B59940CB
:100B800000280BDA03071B0F083B9C080C4BA40042
:100B9000E318DC6994430C43DC6107E08408094BEB
:100BA000A400E418236893430B432360C106C90ED5
:100BB00001208840044908600449086010BD000015
:100BC00000ED00E000E400E080E200E000E100E091
:100BD000F8B506460F4600791C2148431A491546C8
:100BE0004418E07E002801D00820F8BD3946304680
:100BF000FFF70CFD65603869206028460025002855
:100C000013D0FF223068397F1D328550FF223068B3
:100C100045328550032330681B020C4AC0184260DD
:100C20003068000B40B2FFF7A3FF052230680421B3
:100C3000120280180160E5752576A5750121E1761F
:100C40002846A576F8BD000044030020800002007D
:100C5000F8B503791C246343134C81251C19032721
:100C600066680023AD003F02002E02D00668F61928
:100C7000B560E67D002E0ED0237E002B07D0616884
:100C8000002902D00068C01945601120F8BD21611B
:100C90000123227604E0E2750025E1606576257681
:100CA00000F01AF8F8BD00004403002070B50446B7
:100CB00000791C21074D48434019807E002808D147
:100CC000204600F052F920791C220121504340199E
:100CD000817670BD44030020F8B5044600791C21DC
:100CE000484326494518A87E184302D1204600F003
:100CF0003CF96868002808D0812103222068890017
:100D00001202801841600020F8BDFF2045302168A4
:100D100000220A50FF212531206800F0C4F8064661
:100D2000FF210931206800F0BEF80090FF21453115
:100D3000206800F0B8F80746009838433043E9D0FF
:100D40003046384307D12946206800F0F1F8E87DA5
:100D5000697E8842DED80020E875002E01D003208D
:100D6000F8BD002F01D00F20F8BDA97E0120002979
:100D7000216801D00860C6E74860C4E7440300204A
:100D800070B505460C4600791C21484308494318B4
:100D9000284600F055F8002801D0112070BD9A7542
:100DA00000209C609882284600F004F870BD000086
:100DB00044030020F8B5044600791C2148431F492C
:100DC00000264518FF2720681D37C65120680121DD
:100DD00081602946206800F07FF96968002913D0F6
:100DE00027E0FF270137FF211D31206800F05BF865
:100DF000002802D1A88AB842F5D1A88AB84203D007
:100E00002946206800F068F9A88AA97D8842E8D3BD
:100E1000A98AC81FF9380ED0FF271D373946206828
:100E200000F041F80028F9D020680121C1600020BD
:100E3000A8753046F8BD0F26F9E7000044030020EE
:100E400000791C21484303494018807D002800D0C8
:100E5000012070474403002070B552000A439900F6
:100E6000049D0A432902059E0A43310405240A43CE
:100E7000240780000721001909024018026070BD94
:100E80001CB500220B46009211460192FFF7E4FFC9
:100E90001CBD1CB5002100910B4601220191114699
:100EA000FFF7DAFF1CBD4058002800D00120704732
:100EB0000322120280184068084000D001207047C9
:100EC00004494A6801204005034693438B60104063
:100ED000C86070470005005010B5062101A0FFF75B
:100EE000C7FD10BD48656C6C6F0A000070B5012429
:100EF0000B49600408600B4940108860094940397B
:100F00008860094D6C602F20FFF7C8FDAC60074D6D
:100F100000242F20AC60FFF7C1FDAC7070BD000055
:100F200080E100E040130140001001401C0000205F
:100F300030B5FF220523CD7D002409321B02C318E2
:100F4000002D8450986905D04B7ECA68D054487EE5
:100F5000401C487630BD1FB501246B461C701972C9
:100F6000019206C8684690471FBDFF2325330268DB
:100F70000021D150FF2302680933D15000680121BC
:100F800001607047FEB51F4C0025A768606802909D
:100F90006846FFF7E5FB0190FFF746FC064601981F
:100FA000002822D000230098616817E00E680A46E6
:100FB000864202D9301A086012E0801BF31800261E
:100FC0001660D668D169B446002E07D0FE183602E6
:100FD000360A566066469660D56115460029E5D109
:100FE00028466160FFF776FC06E02846FFF772FCB2
:100FF000002801D1002E02D00298FFF75DFB0020EF
:10100000E070FEBD1C0000200120024900050860C0
:101010007047000000E200E010B50E4B596800294F
:1010200006D002680C68A24204D8A21A0A60C16104
:10103000586010BD0B4604E00B46C969121B00291D
:1010400004D00C689442F7D3A41A0C600260C1610A
:10105000D86110BD1C000020F8B51D4D6C68002C37
:1010600034D01C4800274068A968401A0602360A96
:101070002068B04218D8361AC7192246107CE46995
:1010800000280FD000201074EB68002B07D0916966
:1010900050699847002805D0FFF748F902E05169E8
:1010A00090698847002CE3D129786878814206D17D
:1010B000401CC0B26870022801D100206870044949
:1010C0000006800D18310F50FFF79EFFF8BD00009D
:1010D0001C00002000150140FF221D320023835018
:1010E0008B8A8A68D25C8B8A5B1C8B820521090201
:1010F0004018C26170471FB500226B461A70197202
:1011000081680191827506C8684690471FBD00003E
:101110007CB50178264D002934D001290CD0022954
:101120002DD16A461170C068691C01900122C81D4A
:10113000FFF78EFD684630E0406801781D48FFF7F4
:101140001EF901261B4C002803D069460E70019041
:1011500006E0A068E168814205D000206946087079
:10116000084669688847A068E168081AA18888422B
:1011700006D80F490122491CC81DFFF769FD7CBD37
:10118000AE707CBD0B480A491030FFF7DBF8002831
:1011900006D00320694608706846696888477CBDA8
:1011A0000349012208460830FFF7EAFD7CBD000034
:1011B000080000207403002038B505460078002898
:1011C00016D16846FFF774F968460F4C02780D494E
:1011D00020880A54401C81B221800A2A08D1626802
:1011E0000848904764210748FEF7ABFF00202080A5
:1011F0002878022801D0012802D16868FFF796F804
:1012000038BD0000E002002000000020F0B50C46D0
:10121000012185B005464902FFF74AFE0321090274
:101220006F180026002826D0FF2125312846FFF719
:101230003AFE00281FD0FF2025302E50812080004C
:10124000B860A07E002801D10120686002216846B4
:1012500001700920C0012918086808600390E17D29
:1012600068460172E0680190E675267606CC68460D
:10127000083C90472DE004212846FFF719FE00287E
:1012800027D0FF2109312846FFF70DFE002820D086
:1012900021462846FFF74CFEE07D617E884218D14A
:1012A000207E002807D0617EE268E0752069E0605A
:1012B000267666760AE0A07E002801D101206860CB
:1012C00081208000B860E675617EE2682046FFF705
:1012D00042FEFF271D3739462846FFF7E4FD002868
:1012E0000FD0A08AA17D884204D221462846FFF76C
:1012F000F3FE06E0EE51A17D002902D02046FFF763
:10130000FAFEFF27453739462846FFF7CCFD00286F
:101310000ED0EE51A07E002801D001202860E07D93
:10132000002805D0E675617EE2682046FFF713FECF
:1013300005B0F0BD10B5FFF79BFB10BD10B5094916
:101340004B788C785A1CD2B2944200D100220C788F
:10135000944201D1002010BD0270486818214B430F
:10136000C01810BD2C0000204000002060000020AC
:101370000B00000009000000000000000000000059
:101380000000000000E0D701FFFFFFFFFFFFFFFFAD
:10139000FFFFFFFFFFFFFFFF000000000000000055
:1013A00000E0D70103000000C81300000000002087
:1013B00040000000F002000008140000400000207F
:1013C000580B0000000300000000000000000000B7
:1013D00000000000000000000020004000000000AD
:1013E00000000000000000000000000000000000FD
:1013F00000000000000000000000000000000000ED
:08140000000000000024F400CC
:04000005000000C136
:00000001FF
